:1003B000000000000000000000000000000000003D
:1003C000000000000000000000000000000000002D
:0803D000000000000000000025
:10045E00050D344310100005083443101000C10878
:06046E00C109C10AC10B27
:1001F70078237C007D007BFF7A0379B07E007F1433
:100207001200F678377C007D007BFF7A0379C47E85
:10021700007F141200F61204A812042A12035912BE
:100227000003300814759953C2081203D8752501C5
:100237007B007A0079231204A0300921759941C205
:10024700097B007A007937754F147F611202F97BB9
:10025700007A0079377D14120387759941300AC2F5
:07026700C20A1202C580BBB0
:0A0016007EFAAD071FED70FADEF868
:0100200022BD
:0704A800D28AD2AAC2BA22D7
:10042A00759850758920758DF3758BF3758780D211
:0A043A008EC2ABD2ACD2BCD2AF220E
:0300230002044490
:05044400C0D075D018C6
:10044900309902C29930980AAF998F118F0CD2084E
:02045900C29847
:03045B00D0D032CC
:0300130002026E78
:10026E00C0E0C0F0C083C082C0D075D000C000C056
:10027E0001C002C003C004C005C006C0077F07123C
:10028E0004868F20300602D209300409D20AE4FD1A
:10029E007FE1120475AD207F27120475D007D006BA
:1002AE00D005D004D003D002D001D000D0D0D0825F
:0702BE00D083D0F0D0E03244
:1003F400C296E4FEEF339291EF25E0FFD296A295E8
:0A040400E4334207C2960EBE08EA78
:01040E0022CB
:10047500C2921203F4AC07AF051203F4D292AF0493
:010485002254
:06032A008B4C8A4D894E48
:10033000C2921203F4AD07E4FCECC3954F5015AB29
:100340004CAA4DA94E8C8275830012011CFF12032A
:08035000F40C80E5D292AF0528
:010358002282
:0B049500EFD394004004001F80F6220B
:1003D8007B007A00790D754F057F3012032A7B0068
:0C03E8007A007908754F057F2A02032A6D
:0E048600C2921203F48F22E4FF1203F4D2920A
:010494002245
:0602F9008B4C8A4D894E7A
:1002FF00C2921203F4AD07E4FCECC3954F5017E420
:10030F00FF1203F4AB4CAA4DA94E8C82758300EFFC
:0A031F001201490C80E3D292AF05F1
:0103290022B1
:100359007FC8120495C297C292C2967D017F22126C
:1003690004757F211204751D7F251204757D147F84
:0E037900311204757D077F26120475D2922280
:10040F00C2977D0E7F20120475754F147FA01203C3
:0B041F002AD2977F11120495C2972289
:10000300C2977D0F7F20120475D2977FC802049593
:0804A000C29712040F020003D1
:080387008B4B8A4C894D8D4E11
:10038F00E4FCECC3954E5018AB4BAA4CA94D8C8294
:10039F0075830012011CF5997F021200160C80E282
:0103AF00222B
:1002C5007599547F021200167599497F021200161E
:1002D50075994D7F021200167599457F0212001619
:1002E50075994F7F021200167599557F02120016F7
:0402F5007599542281
:0300000002016B8F
:0C016B00787FE4F6D8FD75814F0201B2E8
:10002600E709F608DFFA8046E709F208DFFA803EBC
:1000360088828C83E709F0A3DFFA8032E309F608A9
:10004600DFFA8078E309F208DFFA807088828C8311
:10005600E309F0A3DFFA806489828A83E0A3F608C5
:10006600DFFA805889828A83E0A3F208DFFA804C9F
:1000760080D280FA80C680D4806980F28033801076
:1000860080A680EA809A80A880DA80E280CA8033DF
:1000960089828A83ECFAE493A3C8C582C8CCC58357
:1000A600CCF0A3C8C582C8CCC583CCDFE9DEE78027
:1000B6000D89828A83E493A3F608DFF9ECFAA9F0A6
:1000C600EDFB2289828A83ECFAE0A3C8C582C8CCFC
:1000D600C583CCF0A3C8C582C8CCC583CCDFEADE15
:1000E600E880DB89828A83E493A3F208DFF980CC77
:1000F60088F0EF60010E4E60C388F0ED2402B40470
:100106000050B9F582EB2402B4040050AF23234516
:06011600822390007673C5
:10011C00BB010CE58229F582E5833AF583E0225098
:10012C0006E92582F8E622BBFE06E92582F8E222E2
:0D013C00E58229F582E5833AF583E49322FC
:10014900F8BB010DE58229F582E5833AF583E8F0EC
:10015900225006E92582C8F622BBFE05E92582C898
:02016900F22280
:100177000201F7E493A3F8E493A34003F68001F2A6
:1001870008DFF48029E493A3F85407240CC8C33389
:10019700C4540F4420C8834004F456800146F6DF58
:1001A700E4800B010204081020408090045EE47E86
:1001B700019360BCA3FF543F30E509541FFEE4934D
:1001C700A360010ECF54C025E060A840B8E493A314
:1001D700FAE493A3F8E493A3C8C582C8CAC583CA3F
:1001E700F0A3C8C582C8CAC583CADFE9DEE780BEF7
:010474000087
:00000001FF
